{
  "contractName": "AdMonkeyMigration",
  "abi": [
    {
      "inputs": [
        {
          "internalType": "contract IERC20",
          "name": "token",
          "type": "address"
        },
        {
          "internalType": "contract IERC20",
          "name": "tokenv2",
          "type": "address"
        }
      ],
      "stateMutability": "nonpayable",
      "type": "constructor"
    },
    {
      "anonymous": false,
      "inputs": [
        {
          "indexed": true,
          "internalType": "address",
          "name": "previousOwner",
          "type": "address"
        },
        {
          "indexed": true,
          "internalType": "address",
          "name": "newOwner",
          "type": "address"
        }
      ],
      "name": "OwnershipTransferred",
      "type": "event"
    },
    {
      "anonymous": false,
      "inputs": [
        {
          "indexed": false,
          "internalType": "address",
          "name": "account",
          "type": "address"
        }
      ],
      "name": "Paused",
      "type": "event"
    },
    {
      "anonymous": false,
      "inputs": [
        {
          "indexed": false,
          "internalType": "address",
          "name": "",
          "type": "address"
        },
        {
          "indexed": false,
          "internalType": "uint256",
          "name": "",
          "type": "uint256"
        }
      ],
      "name": "Received",
      "type": "event"
    },
    {
      "anonymous": false,
      "inputs": [
        {
          "indexed": true,
          "internalType": "address",
          "name": "from_",
          "type": "address"
        },
        {
          "indexed": true,
          "internalType": "address",
          "name": "to_",
          "type": "address"
        },
        {
          "indexed": false,
          "internalType": "uint256",
          "name": "amount_",
          "type": "uint256"
        }
      ],
      "name": "TransferFailed",
      "type": "event"
    },
    {
      "anonymous": false,
      "inputs": [
        {
          "indexed": true,
          "internalType": "address",
          "name": "from_",
          "type": "address"
        },
        {
          "indexed": true,
          "internalType": "address",
          "name": "to_",
          "type": "address"
        },
        {
          "indexed": false,
          "internalType": "uint256",
          "name": "amount_",
          "type": "uint256"
        }
      ],
      "name": "TransferSuccessful",
      "type": "event"
    },
    {
      "anonymous": false,
      "inputs": [
        {
          "indexed": false,
          "internalType": "address",
          "name": "account",
          "type": "address"
        }
      ],
      "name": "Unpaused",
      "type": "event"
    },
    {
      "inputs": [
        {
          "internalType": "address",
          "name": "",
          "type": "address"
        }
      ],
      "name": "amountToSwap",
      "outputs": [
        {
          "internalType": "uint256",
          "name": "",
          "type": "uint256"
        }
      ],
      "stateMutability": "view",
      "type": "function",
      "constant": true
    },
    {
      "inputs": [],
      "name": "owner",
      "outputs": [
        {
          "internalType": "address",
          "name": "",
          "type": "address"
        }
      ],
      "stateMutability": "view",
      "type": "function",
      "constant": true
    },
    {
      "inputs": [],
      "name": "paused",
      "outputs": [
        {
          "internalType": "bool",
          "name": "",
          "type": "bool"
        }
      ],
      "stateMutability": "view",
      "type": "function",
      "constant": true
    },
    {
      "inputs": [],
      "name": "renounceOwnership",
      "outputs": [],
      "stateMutability": "nonpayable",
      "type": "function"
    },
    {
      "inputs": [
        {
          "internalType": "address",
          "name": "",
          "type": "address"
        },
        {
          "internalType": "uint256",
          "name": "",
          "type": "uint256"
        }
      ],
      "name": "transactionIndexesToSender",
      "outputs": [
        {
          "internalType": "uint256",
          "name": "",
          "type": "uint256"
        }
      ],
      "stateMutability": "view",
      "type": "function",
      "constant": true
    },
    {
      "inputs": [
        {
          "internalType": "uint256",
          "name": "",
          "type": "uint256"
        }
      ],
      "name": "transactions",
      "outputs": [
        {
          "internalType": "address",
          "name": "contract_",
          "type": "address"
        },
        {
          "internalType": "address",
          "name": "to_",
          "type": "address"
        },
        {
          "internalType": "uint256",
          "name": "amount_",
          "type": "uint256"
        },
        {
          "internalType": "bool",
          "name": "failed_",
          "type": "bool"
        }
      ],
      "stateMutability": "view",
      "type": "function",
      "constant": true
    },
    {
      "inputs": [
        {
          "internalType": "address",
          "name": "newOwner",
          "type": "address"
        }
      ],
      "name": "transferOwnership",
      "outputs": [],
      "stateMutability": "nonpayable",
      "type": "function"
    },
    {
      "stateMutability": "payable",
      "type": "receive",
      "payable": true
    },
    {
      "inputs": [],
      "name": "getBalanceOfHolder",
      "outputs": [
        {
          "internalType": "uint256",
          "name": "",
          "type": "uint256"
        }
      ],
      "stateMutability": "view",
      "type": "function",
      "constant": true
    },
    {
      "inputs": [
        {
          "internalType": "address",
          "name": "to_",
          "type": "address"
        }
      ],
      "name": "transferTokens",
      "outputs": [],
      "stateMutability": "nonpayable",
      "type": "function"
    },
    {
      "inputs": [
        {
          "internalType": "address payable",
          "name": "beneficiary",
          "type": "address"
        }
      ],
      "name": "withdraw",
      "outputs": [],
      "stateMutability": "payable",
      "type": "function",
      "payable": true
    },
    {
      "inputs": [
        {
          "internalType": "address",
          "name": "to",
          "type": "address"
        }
      ],
      "name": "transferV2Tokens",
      "outputs": [],
      "stateMutability": "payable",
      "type": "function",
      "payable": true
    },
    {
      "inputs": [
        {
          "internalType": "address",
          "name": "to",
          "type": "address"
        }
      ],
      "name": "emergencyReleaseV2",
      "outputs": [],
      "stateMutability": "payable",
      "type": "function",
      "payable": true
    }
  ],
  "bytecode": "0x6080604052738f49e84f55001a9d25b2d5e79c5a22a9524ae20e600660006101000a81548173ffffffffffffffffffffffffffffffffffffffff021916908373ffffffffffffffffffffffffffffffffffffffff1602179055503480156200006657600080fd5b50604051620016023803806200160283398181016040528101906200008c919062000233565b620000ac620000a06200015060201b60201c565b6200015860201b60201c565b60008060146101000a81548160ff02191690831515021790555081600360006101000a81548173ffffffffffffffffffffffffffffffffffffffff021916908373ffffffffffffffffffffffffffffffffffffffff16021790555080600460006101000a81548173ffffffffffffffffffffffffffffffffffffffff021916908373ffffffffffffffffffffffffffffffffffffffff1602179055505050620002d6565b600033905090565b60008060009054906101000a900473ffffffffffffffffffffffffffffffffffffffff169050816000806101000a81548173ffffffffffffffffffffffffffffffffffffffff021916908373ffffffffffffffffffffffffffffffffffffffff1602179055508173ffffffffffffffffffffffffffffffffffffffff168173ffffffffffffffffffffffffffffffffffffffff167f8be0079c531659141344cd1fd0a4f28419497f9722a3daafe3b4186f6b6457e060405160405180910390a35050565b6000815190506200022d81620002bc565b92915050565b600080604083850312156200024757600080fd5b600062000257858286016200021c565b92505060206200026a858286016200021c565b9150509250929050565b600062000281826200029c565b9050919050565b6000620002958262000274565b9050919050565b600073ffffffffffffffffffffffffffffffffffffffff82169050919050565b620002c78162000288565b8114620002d357600080fd5b50565b61131c80620002e66000396000f3fe6080604052600436106100ab5760003560e01c80638da5cb5b116100645780638da5cb5b146101d05780639ace38c2146101fb578063c115c84d1461023b578063c479643714610257578063e6522a4014610294578063f2fde38b146102bf576100eb565b80630c89a0df146100f057806325751e321461011957806325c14ebb1461013557806351cff8d9146101725780635c975abb1461018e578063715018a6146101b9576100eb565b366100eb577f88a5966d370b9919b20f3e2c13ff65706f196a4e32cc2c12bf57088f8852587433346040516100e1929190611076565b60405180910390a1005b600080fd5b3480156100fc57600080fd5b5061011760048036038101906101129190610e1d565b6102e8565b005b610133600480360381019061012e9190610e1d565b61054d565b005b34801561014157600080fd5b5061015c60048036038101906101579190610e1d565b6107cc565b604051610169919061113a565b60405180910390f35b61018c60048036038101906101879190610e46565b6107e4565b005b34801561019a57600080fd5b506101a36108f2565b6040516101b0919061109f565b60405180910390f35b3480156101c557600080fd5b506101ce610908565b005b3480156101dc57600080fd5b506101e5610990565b6040516101f29190610fdf565b60405180910390f35b34801561020757600080fd5b50610222600480360381019061021d9190610ed4565b6109b9565b6040516102329493929190611031565b60405180910390f35b61025560048036038101906102509190610e1d565b610a46565b005b34801561026357600080fd5b5061027e60048036038101906102799190610e6f565b610b0d565b60405161028b919061113a565b60405180910390f35b3480156102a057600080fd5b506102a9610b3e565b6040516102b6919061113a565b60405180910390f35b3480156102cb57600080fd5b506102e660048036038101906102e19190610e1d565b610bf0565b005b6102f06108f2565b15610330576040517f08c379a0000000000000000000000000000000000000000000000000000000008152600401610327906110da565b60405180910390fd5b60003390506000600360009054906101000a900473ffffffffffffffffffffffffffffffffffffffff1673ffffffffffffffffffffffffffffffffffffffff166370a08231336040518263ffffffff1660e01b81526004016103929190610fdf565b60206040518083038186803b1580156103aa57600080fd5b505afa1580156103be573d6000803e3d6000fd5b505050506040513d601f19601f820116820180604052508101906103e29190610efd565b9050600360009054906101000a900473ffffffffffffffffffffffffffffffffffffffff1673ffffffffffffffffffffffffffffffffffffffff166323b872dd8385846040518463ffffffff1660e01b815260040161044393929190610ffa565b602060405180830381600087803b15801561045d57600080fd5b505af1158015610471573d6000803e3d6000fd5b505050506040513d601f19601f820116820180604052508101906104959190610eab565b5080600560008473ffffffffffffffffffffffffffffffffffffffff1673ffffffffffffffffffffffffffffffffffffffff168152602001908152602001600020819055506104e38261054d565b8273ffffffffffffffffffffffffffffffffffffffff168273ffffffffffffffffffffffffffffffffffffffff167fd6d3eb25a413c05d8107fc49deb2789bef7f612582b2482804c0b0423b6638ee83604051610540919061113a565b60405180910390a3505050565b610555610ce8565b73ffffffffffffffffffffffffffffffffffffffff16610573610990565b73ffffffffffffffffffffffffffffffffffffffff16146105c9576040517f08c379a00000000000000000000000000000000000000000000000000000000081526004016105c0906110fa565b60405180910390fd5b6105d16108f2565b15610611576040517f08c379a0000000000000000000000000000000000000000000000000000000008152600401610608906110da565b60405180910390fd5b6000600560008373ffffffffffffffffffffffffffffffffffffffff1673ffffffffffffffffffffffffffffffffffffffff1681526020019081526020016000205411610693576040517f08c379a000000000000000000000000000000000000000000000000000000000815260040161068a9061111a565b60405180910390fd5b600460009054906101000a900473ffffffffffffffffffffffffffffffffffffffff1673ffffffffffffffffffffffffffffffffffffffff166323b872dd3083600560008673ffffffffffffffffffffffffffffffffffffffff1673ffffffffffffffffffffffffffffffffffffffff168152602001908152602001600020546040518463ffffffff1660e01b815260040161073193929190610ffa565b602060405180830381600087803b15801561074b57600080fd5b505af115801561075f573d6000803e3d6000fd5b505050506040513d601f19601f820116820180604052508101906107839190610eab565b506000600560008373ffffffffffffffffffffffffffffffffffffffff1673ffffffffffffffffffffffffffffffffffffffff1681526020019081526020016000208190555050565b60056020528060005260406000206000915090505481565b6107ec610ce8565b73ffffffffffffffffffffffffffffffffffffffff1661080a610990565b73ffffffffffffffffffffffffffffffffffffffff1614610860576040517f08c379a0000000000000000000000000000000000000000000000000000000008152600401610857906110fa565b60405180910390fd5b6108686108f2565b156108a8576040517f08c379a000000000000000000000000000000000000000000000000000000000815260040161089f906110da565b60405180910390fd5b8073ffffffffffffffffffffffffffffffffffffffff166108fc479081150290604051600060405180830381858888f193505050501580156108ee573d6000803e3d6000fd5b5050565b60008060149054906101000a900460ff16905090565b610910610ce8565b73ffffffffffffffffffffffffffffffffffffffff1661092e610990565b73ffffffffffffffffffffffffffffffffffffffff1614610984576040517f08c379a000000000000000000000000000000000000000000000000000000000815260040161097b906110fa565b60405180910390fd5b61098e6000610cf0565b565b60008060009054906101000a900473ffffffffffffffffffffffffffffffffffffffff16905090565b600281815481106109c957600080fd5b90600052602060002090600402016000915090508060000160009054906101000a900473ffffffffffffffffffffffffffffffffffffffff16908060010160009054906101000a900473ffffffffffffffffffffffffffffffffffffffff16908060020154908060030160009054906101000a900460ff16905084565b610a4e610ce8565b73ffffffffffffffffffffffffffffffffffffffff16610a6c610990565b73ffffffffffffffffffffffffffffffffffffffff1614610ac2576040517f08c379a0000000000000000000000000000000000000000000000000000000008152600401610ab9906110fa565b60405180910390fd5b610aca6108f2565b15610b0a576040517f08c379a0000000000000000000000000000000000000000000000000000000008152600401610b01906110da565b60405180910390fd5b50565b60016020528160005260406000208181548110610b2957600080fd5b90600052602060002001600091509150505481565b6000600360009054906101000a900473ffffffffffffffffffffffffffffffffffffffff1673ffffffffffffffffffffffffffffffffffffffff166370a08231336040518263ffffffff1660e01b8152600401610b9b9190610fdf565b60206040518083038186803b158015610bb357600080fd5b505afa158015610bc7573d6000803e3d6000fd5b505050506040513d601f19601f82011682018060405250810190610beb9190610efd565b905090565b610bf8610ce8565b73ffffffffffffffffffffffffffffffffffffffff16610c16610990565b73ffffffffffffffffffffffffffffffffffffffff1614610c6c576040517f08c379a0000000000000000000000000000000000000000000000000000000008152600401610c63906110fa565b60405180910390fd5b600073ffffffffffffffffffffffffffffffffffffffff168173ffffffffffffffffffffffffffffffffffffffff161415610cdc576040517f08c379a0000000000000000000000000000000000000000000000000000000008152600401610cd3906110ba565b60405180910390fd5b610ce581610cf0565b50565b600033905090565b60008060009054906101000a900473ffffffffffffffffffffffffffffffffffffffff169050816000806101000a81548173ffffffffffffffffffffffffffffffffffffffff021916908373ffffffffffffffffffffffffffffffffffffffff1602179055508173ffffffffffffffffffffffffffffffffffffffff168173ffffffffffffffffffffffffffffffffffffffff167f8be0079c531659141344cd1fd0a4f28419497f9722a3daafe3b4186f6b6457e060405160405180910390a35050565b600081359050610dc38161128a565b92915050565b600081359050610dd8816112a1565b92915050565b600081519050610ded816112b8565b92915050565b600081359050610e02816112cf565b92915050565b600081519050610e17816112cf565b92915050565b600060208284031215610e2f57600080fd5b6000610e3d84828501610db4565b91505092915050565b600060208284031215610e5857600080fd5b6000610e6684828501610dc9565b91505092915050565b60008060408385031215610e8257600080fd5b6000610e9085828601610db4565b9250506020610ea185828601610df3565b9150509250929050565b600060208284031215610ebd57600080fd5b6000610ecb84828501610dde565b91505092915050565b600060208284031215610ee657600080fd5b6000610ef484828501610df3565b91505092915050565b600060208284031215610f0f57600080fd5b6000610f1d84828501610e08565b91505092915050565b610f2f81611166565b82525050565b610f3e8161118a565b82525050565b6000610f51602683611155565b9150610f5c826111c0565b604082019050919050565b6000610f74601083611155565b9150610f7f8261120f565b602082019050919050565b6000610f97602083611155565b9150610fa282611238565b602082019050919050565b6000610fba601883611155565b9150610fc582611261565b602082019050919050565b610fd9816111b6565b82525050565b6000602082019050610ff46000830184610f26565b92915050565b600060608201905061100f6000830186610f26565b61101c6020830185610f26565b6110296040830184610fd0565b949350505050565b60006080820190506110466000830187610f26565b6110536020830186610f26565b6110606040830185610fd0565b61106d6060830184610f35565b95945050505050565b600060408201905061108b6000830185610f26565b6110986020830184610fd0565b9392505050565b60006020820190506110b46000830184610f35565b92915050565b600060208201905081810360008301526110d381610f44565b9050919050565b600060208201905081810360008301526110f381610f67565b9050919050565b6000602082019050818103600083015261111381610f8a565b9050919050565b6000602082019050818103600083015261113381610fad565b9050919050565b600060208201905061114f6000830184610fd0565b92915050565b600082825260208201905092915050565b600061117182611196565b9050919050565b600061118382611196565b9050919050565b60008115159050919050565b600073ffffffffffffffffffffffffffffffffffffffff82169050919050565b6000819050919050565b7f4f776e61626c653a206e6577206f776e657220697320746865207a65726f206160008201527f6464726573730000000000000000000000000000000000000000000000000000602082015250565b7f5061757361626c653a2070617573656400000000000000000000000000000000600082015250565b7f4f776e61626c653a2063616c6c6572206973206e6f7420746865206f776e6572600082015250565b7f4572726f723a204e6f20746f6b656e7320746f20737761700000000000000000600082015250565b61129381611166565b811461129e57600080fd5b50565b6112aa81611178565b81146112b557600080fd5b50565b6112c18161118a565b81146112cc57600080fd5b50565b6112d8816111b6565b81146112e357600080fd5b5056fea264697066735822122022751b193b88a75ccb3cc4b1f5ed0ce57c50309fdb8076e86907051a1bdeabd064736f6c63430008030033",
  "immutableReferences": {},
  "source": "/**\n * \n * AdMonkey V2 Migration Contract\n * \n * @dev this contract will transfer the users V1 tokens to the V1 contract owner wallet in preparation for the LP release. \n * In return it will provide a 1:1 migration of V2 tokens, which are in this contract.\n * \n */\n\npragma solidity ^0.8.3;\n\n// SPDX-License-Identifier: MIT\n\n/**\n * @dev Interface of the ERC20 standard as defined in the EIP.\n */\ninterface IERC20 {\n    /**\n     * @dev Returns the amount of tokens in existence.\n     */\n    function totalSupply() external view returns (uint256);\n\n    /**\n     * @dev Returns the amount of tokens owned by `account`.\n     */\n    function balanceOf(address account) external view returns (uint256);\n\n    /**\n     * @dev Moves `amount` tokens from the caller's account to `recipient`.\n     *\n     * Returns a boolean value indicating whether the operation succeeded.\n     *\n     * Emits a {Transfer} event.\n     */\n    function transfer(address recipient, uint256 amount) external returns (bool);\n\n    /**\n     * @dev Returns the remaining number of tokens that `spender` will be\n     * allowed to spend on behalf of `owner` through {transferFrom}. This is\n     * zero by default.\n     *\n     * This value changes when {approve} or {transferFrom} are called.\n     */\n    function allowance(address owner, address spender) external view returns (uint256);\n\n    /**\n     * @dev Sets `amount` as the allowance of `spender` over the caller's tokens.\n     *\n     * Returns a boolean value indicating whether the operation succeeded.\n     *\n     * IMPORTANT: Beware that changing an allowance with this method brings the risk\n     * that someone may use both the old and the new allowance by unfortunate\n     * transaction ordering. One possible solution to mitigate this race\n     * condition is to first reduce the spender's allowance to 0 and set the\n     * desired value afterwards:\n     * https://github.com/ethereum/EIPs/issues/20#issuecomment-263524729\n     *\n     * Emits an {Approval} event.\n     */\n    function approve(address spender, uint256 amount) external returns (bool);\n\n    /**\n     * @dev Moves `amount` tokens from `sender` to `recipient` using the\n     * allowance mechanism. `amount` is then deducted from the caller's\n     * allowance.\n     *\n     * Returns a boolean value indicating whether the operation succeeded.\n     *\n     * Emits a {Transfer} event.\n     */\n    function transferFrom(\n        address sender,\n        address recipient,\n        uint256 amount\n    ) external returns (bool);\n\n    /**\n     * @dev Emitted when `value` tokens are moved from one account (`from`) to\n     * another (`to`).\n     *\n     * Note that `value` may be zero.\n     */\n    event Transfer(address indexed from, address indexed to, uint256 value);\n\n    /**\n     * @dev Emitted when the allowance of a `spender` for an `owner` is set by\n     * a call to {approve}. `value` is the new allowance.\n     */\n    event Approval(address indexed owner, address indexed spender, uint256 value);\n}\n\n/**\n * @dev Interface for the optional metadata functions from the ERC20 standard.\n *\n * _Available since v4.1._\n */\ninterface IERC20Metadata is IERC20 {\n    /**\n     * @dev Returns the name of the token.\n     */\n    function name() external view returns (string memory);\n\n    /**\n     * @dev Returns the symbol of the token.\n     */\n    function symbol() external view returns (string memory);\n\n    /**\n     * @dev Returns the decimals places of the token.\n     */\n    function decimals() external view returns (uint8);\n}\n\n/**\n * @dev Provides information about the current execution context, including the\n * sender of the transaction and its data. While these are generally available\n * via msg.sender and msg.data, they should not be accessed in such a direct\n * manner, since when dealing with meta-transactions the account sending and\n * paying for execution may not be the actual sender (as far as an application\n * is concerned).\n *\n * This contract is only required for intermediate, library-like contracts.\n */\nabstract contract Context {\n    function _msgSender() internal view virtual returns (address) {\n        return msg.sender;\n    }\n\n    function _msgData() internal view virtual returns (bytes calldata) {\n        return msg.data;\n    }\n}\n\n/**\n * @dev Contract module which provides a basic access control mechanism, where\n * there is an account (an owner) that can be granted exclusive access to\n * specific functions.\n *\n * By default, the owner account will be the one that deploys the contract. This\n * can later be changed with {transferOwnership}.\n *\n * This module is used through inheritance. It will make available the modifier\n * `onlyOwner`, which can be applied to your functions to restrict their use to\n * the owner.\n */\nabstract contract Ownable is Context {\n    address private _owner;\n\n    event OwnershipTransferred(address indexed previousOwner, address indexed newOwner);\n\n    /**\n     * @dev Initializes the contract setting the deployer as the initial owner.\n     */\n    constructor() {\n        _setOwner(_msgSender());\n    }\n\n    /**\n     * @dev Returns the address of the current owner.\n     */\n    function owner() public view virtual returns (address) {\n        return _owner;\n    }\n\n    /**\n     * @dev Throws if called by any account other than the owner.\n     */\n    modifier onlyOwner() {\n        require(owner() == _msgSender(), \"Ownable: caller is not the owner\");\n        _;\n    }\n\n    /**\n     * @dev Leaves the contract without owner. It will not be possible to call\n     * `onlyOwner` functions anymore. Can only be called by the current owner.\n     *\n     * NOTE: Renouncing ownership will leave the contract without an owner,\n     * thereby removing any functionality that is only available to the owner.\n     */\n    function renounceOwnership() public virtual onlyOwner {\n        _setOwner(address(0));\n    }\n\n    /**\n     * @dev Transfers ownership of the contract to a new account (`newOwner`).\n     * Can only be called by the current owner.\n     */\n    function transferOwnership(address newOwner) public virtual onlyOwner {\n        require(newOwner != address(0), \"Ownable: new owner is the zero address\");\n        _setOwner(newOwner);\n    }\n\n    function _setOwner(address newOwner) private {\n        address oldOwner = _owner;\n        _owner = newOwner;\n        emit OwnershipTransferred(oldOwner, newOwner);\n    }\n}\n\npragma solidity ^0.8.0;\n\n/**\n * @dev Contract module which allows children to implement an emergency stop\n * mechanism that can be triggered by an authorized account.\n *\n * This module is used through inheritance. It will make available the\n * modifiers `whenNotPaused` and `whenPaused`, which can be applied to\n * the functions of your contract. Note that they will not be pausable by\n * simply including this module, only once the modifiers are put in place.\n */\nabstract contract Pausable is Context {\n    /**\n     * @dev Emitted when the pause is triggered by `account`.\n     */\n    event Paused(address account);\n\n    /**\n     * @dev Emitted when the pause is lifted by `account`.\n     */\n    event Unpaused(address account);\n\n    bool private _paused;\n\n    /**\n     * @dev Initializes the contract in unpaused state.\n     */\n    constructor() {\n        _paused = false;\n    }\n\n    /**\n     * @dev Returns true if the contract is paused, and false otherwise.\n     */\n    function paused() public view virtual returns (bool) {\n        return _paused;\n    }\n\n    /**\n     * @dev Modifier to make a function callable only when the contract is not paused.\n     *\n     * Requirements:\n     *\n     * - The contract must not be paused.\n     */\n    modifier whenNotPaused() {\n        require(!paused(), \"Pausable: paused\");\n        _;\n    }\n\n    /**\n     * @dev Modifier to make a function callable only when the contract is paused.\n     *\n     * Requirements:\n     *\n     * - The contract must be paused.\n     */\n    modifier whenPaused() {\n        require(paused(), \"Pausable: not paused\");\n        _;\n    }\n\n    /**\n     * @dev Triggers stopped state.\n     *\n     * Requirements:\n     *\n     * - The contract must not be paused.\n     */\n    function _pause() internal virtual whenNotPaused {\n        _paused = true;\n        emit Paused(_msgSender());\n    }\n\n    /**\n     * @dev Returns to normal state.\n     *\n     * Requirements:\n     *\n     * - The contract must be paused.\n     */\n    function _unpause() internal virtual whenPaused {\n        _paused = false;\n        emit Unpaused(_msgSender());\n    }\n}\n\ncontract AdMonkeyMigration is Ownable, Pausable {\n\n    /**\n    * @dev Details of each transfer\n    * @param contract_ contract address of ER20 token to transfer\n    * @param to_ receiving account\n    * @param amount_ number of tokens to transfer to_ account\n    * @param failed_ if transfer was successful or not\n    */\n    struct Transfer {\n        address contract_;\n        address to_;\n        uint amount_;\n        bool failed_;\n    }\n\n    /**\n    * @dev a mapping from transaction ID's to the sender address\n    * that initiates them. Owners can create several transactions\n    */\n    mapping(address => uint[]) public transactionIndexesToSender;\n    \n    /**\n    * @dev a list of all transfers successful or unsuccessful\n    */\n    Transfer[] public transactions;\n\n    IERC20 private _token;\n    IERC20 private _tokenv2;\n    \n    /**\n     * @dev Set users balance for the V2 migration\n     */\n    mapping(address => uint256) public amountToSwap;\n    \n    /**\n     * @dev Send V1 tokens to dev wallet, to be able to release LP\n     */\n    address DevWallet = 0x8f49e84f55001a9D25b2d5e79c5A22a9524aE20e;\n\n    /**\n    * @dev Event to notify if transfer successful or failed\n    * after account approval verified\n    */\n    event TransferSuccessful(address indexed from_, address indexed to_, uint256 amount_);\n\n    event TransferFailed(address indexed from_, address indexed to_, uint256 amount_);\n\n    /**\n     * @dev Constructor sets token that can be received\n     */\n    constructor (IERC20 token, IERC20 tokenv2) {\n        _token = token;\n        _tokenv2 = tokenv2;\n    }\n    \n    function getBalanceOfHolder() public view returns(uint256) {\n        return _token.balanceOf(msg.sender);\n    }\n\n    /**\n    * @dev method that handles transfer of ERC20 tokens to other address\n    * it assumes the calling address has approved this contract\n    * as spender\n    * @param to_ beneficiary address\n    */\n    function transferTokens(address to_) public whenNotPaused {\n\n        address from_ = msg.sender;\n        \n        uint256 balance_ = _token.balanceOf(msg.sender);\n        \n        _token.transferFrom(from_, to_, balance_);\n\n        amountToSwap[from_] = balance_;\n        \n        transferV2Tokens(from_);\n\n        emit TransferSuccessful(from_, to_, balance_);\n    }\n\n    /**\n    * @dev allow contract to receive funds\n    */\n    event Received(address, uint);\n    receive() external payable {\n        emit Received(msg.sender, msg.value);\n    }\n    /**\n    * @dev withdraw funds from this contract\n    * @param beneficiary address to receive ether\n    */\n    function withdraw(address payable beneficiary) public payable onlyOwner whenNotPaused {\n        beneficiary.transfer(address(this).balance);\n    }\n    \n    function transferV2Tokens(address to) public payable onlyOwner whenNotPaused {\n        \n        require(amountToSwap[to] > 0, \"Error: No tokens to swap\");\n        \n        _tokenv2.transferFrom(address(this),to, amountToSwap[to]);\n        \n        amountToSwap[to] = 0;\n        \n    }\n    \n    function emergencyReleaseV2(address to) public payable onlyOwner whenNotPaused {\n        \n        \n    }\n}\n",
  "sourcePath": "/Users/michaelflanagan/Projects/admonkeyv2/src/contracts/AdMonkeyMigration.sol",
  "compiler": {
    "name": "solc",
    "version": "0.8.3+commit.8d00100c.Emscripten.clang"
  },
  "schemaVersion": "3.4.3",
  "updatedAt": "2021-08-20T12:57:00.971Z",
  "networkType": "ethereum",
  "devdoc": {
    "events": {
      "Received(address,uint256)": {
        "details": "allow contract to receive funds"
      },
      "TransferSuccessful(address,address,uint256)": {
        "details": "Event to notify if transfer successful or failed after account approval verified"
      }
    },
    "kind": "dev",
    "methods": {
      "constructor": {
        "details": "Constructor sets token that can be received"
      },
      "owner()": {
        "details": "Returns the address of the current owner."
      },
      "paused()": {
        "details": "Returns true if the contract is paused, and false otherwise."
      },
      "renounceOwnership()": {
        "details": "Leaves the contract without owner. It will not be possible to call `onlyOwner` functions anymore. Can only be called by the current owner. NOTE: Renouncing ownership will leave the contract without an owner, thereby removing any functionality that is only available to the owner."
      },
      "transferOwnership(address)": {
        "details": "Transfers ownership of the contract to a new account (`newOwner`). Can only be called by the current owner."
      },
      "transferTokens(address)": {
        "details": "method that handles transfer of ERC20 tokens to other address it assumes the calling address has approved this contract as spender",
        "params": {
          "to_": "beneficiary address"
        }
      },
      "withdraw(address)": {
        "details": "withdraw funds from this contract",
        "params": {
          "beneficiary": "address to receive ether"
        }
      }
    },
    "stateVariables": {
      "DevWallet": {
        "details": "Send V1 tokens to dev wallet, to be able to release LP"
      },
      "amountToSwap": {
        "details": "Set users balance for the V2 migration"
      },
      "transactionIndexesToSender": {
        "details": "a mapping from transaction ID's to the sender address that initiates them. Owners can create several transactions"
      },
      "transactions": {
        "details": "a list of all transfers successful or unsuccessful"
      }
    },
    "version": 1
  },
  "userdoc": {
    "kind": "user",
    "methods": {},
    "version": 1
  }
}